:100000001023002059220000552200005722000032
:1000100000000000000000000000000000000000E0
:100020000000000000000000000000005522000059
:100030000000000000000000552200004D220000DA
:1000400055220000552200005522000055220000D4
:1000500055220000552200005522000055220000C4
:1000600055220000552200005522000055220000B4
:1000700055220000552200005522000055220000A4
:100080005522000055220000552200005522000094
:100090005522000000000000000000005522000072
:1000A0005522000055220000552200005522000074
:1000B00000000000074B1A00197DC907FCD520215C
:1000C000FF31198304494008D8611980137DDB078B
:1000D000FCD570470040004102A5FFFFF0B5802528
:1000E000104B114E5C68114FAC435C60002A00D18C
:1000F000F0BD1400102A00D91024121B1E801D7D93
:10010000ED07FCD5A400A44600240D590551043484
:100110006445FAD1001909191F801C7DE407FCD53C
:10012000E4E7C0460040004144A5FFFF04A5FFFFEF
:10013000802270B5002304000D005200E958E058F9
:10014000814203D104339342F8D170BD2000FFF700
:10015000B1FF402229002000FFF7C0FFF5E70000B3
:10016000024A53785BB2002BFBDB7047000C004067
:1001700010230249CA681A42FCD0704700080040A8
:100180001E21F8B50226254A254C5368254D8B4380
:1001900033435360A660FFF7E3FF234B6360FFF731
:1001A000DFFFAE84FFF7E4FF204B1B689B0E3F2B65
:1001B00000D1203B002602271D4A9B0213431D4A03
:1001C000EA62AB62AE84FFF7D3FF1B4BAB84FFF751
:1001D000CFFFAB8C3B43AB84FFF7CAFF3F22638862
:1001E000934380221F4367806388D2011343638057
:1001F000A660FFF7B5FF114B6360FFF7B1FFC021A9
:100200000F4A104B10485360036A09061B021B0A71
:100210000B430362072396601360F8BD0040004162
:10022000000C00400008004006000100246080002F
:10023000FF01000080BB0A1C24050000000703002A
:1002400010E000E0E703000000ED00E010B500F072
:10025000B7F810BDFEE7FEE72048214970B500233E
:10026000884233D100211F4B1F4A934233D3FF22D0
:100270001E4B032193431E4A0C259360022208243F
:1002800030261C4B1C485A62C3788B431343C370FF
:10029000C378AB432343C370184B987BB04306002D
:1002A000202030439873987BA84304439C73987B29
:1002B000884302439A738023114A51680B43536069
:1002C00000F024F9FEE7C458043314600D4CCA183A
:1002D000A242F8D3C6E702C3C7E7C046F045000014
:1002E00000000020040000200C030020002000007B
:1002F00000ED00E0FC70004100500041004800416A
:100300000040004104000020F0B5124E7388002B1D
:1003100017D108241A0292B215B2AC4667465500AE
:10032000AAB2002F02DA0C4A5540AAB2013CA4B28C
:10033000002CF1D15C0032538022013352009342F1
:10034000E7D10B0A58404000305A0902484080B2B9
:10035000F0BDC0460400002021100000012300026F
:10036000984200D87047C0460133F9E7FEE7000025
:10037000054B064A1A60BFF34F8F054B054ADA60FA
:10038000BFF34F8FFEE7C046FC7F0020EF6926F0E9
:1003900000ED00E00400FA05054B064A1A60BFF3C1
:1003A0004F8F054B054ADA60BFF34F8FFEE7C0461B
:1003B000FC7F0020EF6916F000ED00E00400FA0574
:1003C00010B5194A19491368013313600A68002AE5
:1003D0000CD017481018834203D1802415486403B9
:1003E0008461934201D100230B6010BD1248DBB23F
:1003F0000278002B10D180210E4B49039961110026
:100400000A39C9B20D4BF02902D91978494219703D
:100410001B78D2180270E8E79342E6D18022054BA0
:1004200052035A61E1E7C04604020020080200209E
:1004300018FCFFFF004400410100002000000020E4
:100440008022024B52039A609A6170470044004137
:10045000F7B5234A01211300147D0C42FCD0214E34
:10046000214C32682149170025680F4001948F42C2
:1004700002D00027691C02D101271D4D1D4A07210A
:1004800014000C40A04201D1002F28D08A43104311
:100490005968194A194F0A435A602022198BFF32B2
:1004A000114319831649D9611F801F7DFC07FCD5B4
:1004B0001F8B17431F83134FD9611F801F7DFC07BC
:1004C000FCD5306001980560188B02431A830E4AF0
:1004D000D9611A801A7DD207FCD5FFF749FFF7BD15
:1004E000004000410040800004408000F0FFFF0316
:1004F0005DFCFFFFFAC7E0D88000040005A5FFFF00
:100500000020400044A5FFFF06A5FFFFF7B5FFF759
:1005100097FFFFF735FE72B6BFF35F8F0720FFF737
:1005200097FF002480220020234DD200A302AF18A1
:10053000EE18FF1881B230780136FFF7E5FEBE42B3
:10054000F8D11E4A6300D35A834202D00120FFF73C
:100550000DFF0134082CE5D180270024BF01802243
:10056000174E29195200300000F030F820000134F5
:100570003100FF34FFF7DCFDBC42F0D10023114A0B
:1005800020009360694602228026FA270093019397
:100590001424FFF7A3FD0C4D7603BF00EE61380075
:1005A000013CFFF7DBFE002CF8D102206E61FFF763
:1005B0004FFFFFF7F1FEFEE7E0250000E0450000F9
:1005C0000C02002000ED00E000440041002310B5C3
:1005D0009A4200D110BDCC5CC4540133F8E700004E
:1005E000D82D00208902000085020000870200004B
:1005F00000000000000000000000000000000000FB
:100600000000000000000000000000008502000063
:100610000000000000000000850200007D020000D4
:1006200085020000850200008502000085020000AE
:10063000850200008502000085020000850200009E
:10064000850200008502000085020000850200008E
:10065000850200008502000085020000850200007E
:10066000850200008502000085020000850200006E
:10067000850200000000000000000000850200006C
:10068000850200008502000085020000850200004E
:1006900000000000074B1A00197DC907FCD5202176
:1006A000FF31198304494008D8611980137DDB07A5
:1006B000FCD570470040004102A5FFFF10B50400C3
:1006C000044B9C4200D910BD20000134FFF7E2FF2B
:1006D000FF34F5E7FFFF0300002330B59A4200D155
:1006E00030BD9C000D5901330551F7E7F0B5802569
:1006F000104B114E5C68114FAC435C60002A00D176
:10070000F0BD1400102A00D91024121B1E801D7D7C
:10071000ED07FCD5A400A44600240D59055104346E
:100720006445FAD1001909191F801C7DE407FCD526
:10073000E4E7C0460040004144A5FFFF04A5FFFFD9
:10074000802270B5002304000D005200E958E058E3
:10075000814203D104339342F8D170BD2000FFF7EA
:1007600099FF402229002000FFF7C0FFF5E70000B5
:10077000024A53785BB2002BFBDB7047000C004051
:1007800010230249CA681A42FCD070470008004092
:100790001E21F8B50226254A254C5368254D8B436A
:1007A00033435360A660FFF7E3FF234B6360FFF71B
:1007B000DFFFAE84FFF7E4FF204B1B689B0E3F2B4F
:1007C00000D1203B002602271D4A9B0213431D4AED
:1007D000EA62AB62AE84FFF7D3FF1B4BAB84FFF73B
:1007E000CFFFAB8C3B43AB84FFF7CAFF3F2263884C
:1007F000934380221F4367806388D2011343638041
:10080000A660FFF7B5FF114B6360FFF7B1FFC02192
:100810000F4A104B10485360036A09061B021B0A5B
:100820000B430362072396601360F8BD004000414C
:10083000000C004000080040060001002460800019
:10084000FF01000080BB0A1C240500000007030014
:1008500010E000E0E703000000ED00E010B500F05C
:10086000F1F810BDFEE7FEE72048214970B50023EE
:10087000884233D100211F4B1F4A934233D3FF22BA
:100880001E4B032193431E4A0C2593600222082429
:1008900030261C4B1C485A62C3788B431343C370E9
:1008A000C378AB432343C370184B987BB043060017
:1008B000202030439873987BA84304439C73987B13
:1008C000884302439A738023114A51680B43536053
:1008D00000F07CFEFEE7C458043314600D4CCA18C7
:1008E000A242F8D3C6E702C3C7E7C046981C00007F
:1008F00000000020CC010020D40D002000000000EA
:1009000000ED00E0FC700041005000410048004153
:1009100000400041CC010020F0B5124E7388002B3E
:1009200017D108241A0292B215B2AC466746550098
:10093000AAB2002F02DA0C4A5540AAB2013CA4B276
:10094000002CF1D15C0032538022013352009342DB
:10095000E7D10B0A58404000305A0902484080B2A3
:10096000F0BDC046CC010020211000000123000290
:10097000984200D87047C0460133F9E770B50500CA
:100980001C2400200F260B00E3403340002A09D12D
:10099000002B07D1002C0BD0002809D1043C231DCB
:1009A000F1D170BD092B03DD37332B540130F5E74E
:1009B0003033FAE7054B064A1A60BFF34F8F054BF9
:1009C000054ADA60BFF34F8FFEE7C046FC7F002088
:1009D000EF6926F000ED00E00400FA0510B50B4ABF
:1009E0001368002B0ED10A4911600A490A680132C6
:1009F0000A6009490868002806D0824204D30B60C7
:100A0000FFF7D8FF013B136010BDC046D4030020A0
:100A1000DC050000000A0020040A0020054B064AFD
:100A20001A60BFF34F8F054B054ADA60BFF34F8F53
:100A3000FEE7C046FC7F0020EF6916F000ED00E005
:100A40000400FA0510B5194A1949136801331360F7
:100A50000A68002A0CD017481018834203D180245A
:100A6000154864038461934201D100230B6010BDDB
:100A70001248DBB20278002B10D180210E4B4903C3
:100A8000996111000A39C9B20D4BF02902D91978C0
:100A9000494219701B78D2180270E8E79342E6D1F8
:100AA0008022054B52035A61E1E7C046CC03002087
:100AB000D003002018FCFFFF00440041010000208B
:100AC00000000020074B084A1B681168994207D2B2
:100AD000FA21C9005B1813608022044B52035A614B
:100AE0007047C046CC030020D003002000440041E2
:100AF0008022024B52039A609A6170470044004181
:100B000070470000202370B5354A0F20D1690B4390
:100B1000D361012233490B7813430B70324B1978A0
:100B20008143197006211C78214319702F490C78D4
:100B300022430A701A7802401A70602219780A4318
:100B40001A702B4B2B4A5A805A78D209FCD12A4B67
:100B5000013219780A431A709A78D207FCD41F2000
:100B600026490A68520B0240824200D105221C8DA0
:100B7000234D024092012C4022431A850A68920CB0
:100B800002401F2A00D1023A1F24188D2240A043A0
:100B9000024307201A850A68D20D0240824200D122
:100BA0000322198D02401748120301400A437F2196
:100BB0001A851A7814480A401A70042219780A43D0
:100BC0000C211A7058621A898A431A811A890B39C2
:100BD0008A431A8180220021520001F038FA70BD48
:100BE00000040040584400413C4400415944004145
:100BF000000C0040064000000050004124608000CE
:100C00003FF8FFFFFF8FFFFF4C0A0020F7B51C00E5
:100C1000314B06005B6A0F0015000193002C05D1D3
:100C2000443454432D4BE418FFF7D8FE6378227800
:100C3000934210D2D51ABD4200D93D00002E08D0F3
:100C4000211DC9182A00300001F0F8F963785B19FA
:100C500063702800FEBD019BA1786A01D3180029AA
:100C600011D1211D196059681D48890B89035960EC
:100C70005968014059601B495518402128790143A2
:100C800029710121A17014490025511801911649BB
:100C90005218127AD207DCD55D68A278EDB22570C1
:100CA000022A04D11968201D2A0001F0C7F9BD42AB
:100CB00000D93D00002E0CD06570211D2A003000A7
:100CC00001F0BCF90122019BFF331A720023A370CB
:100CD000BFE76670F6E7C046005000414C0B0020AD
:100CE000FF3F00F000510041FF50004110B50023CC
:100CF000FFF78CFF10BDF8B505000C0016001F00B3
:100D0000002C00D1F8BD210028003B003200FFF785
:100D10007DFF241A2D18F3E7F8B50E001F49550181
:100D20004C6A2C19002B1BD063695B005B08636164
:100D300020616369B2049B0B920C9B0313436361B4
:100D40006369174A1748134063612A1802238021F8
:100D50001500137291712A7A1A42FCD03000F8BD46
:100D6000012163695B005B0F03339940B14208D8EE
:100D7000043A531E9A416369D2075B005B08134330
:100D8000D5E744275743084A0437BF18010032000B
:100D9000380001F053F93800CAE7C046005000415E
:100DA000FF3F00F0FF5000414C0B002010B5002326
:100DB000FFF7B2FF10BD000010B5054B1B888B423A
:100DC00000D90B0000221900FFF7F0FF10BDC0464C
:100DD000FA03002007B500226B461100D81DFFF76B
:100DE000E5FF07BDF0B59BB0FFF7F8FD0823BD4C4C
:100DF000BD49A28B1A4003922DD011224020A3831B
:100E00007833A372C0244A7088714B71B74BB84DC8
:100E10005A68A4052A4022435A605A692A4014435A
:100E2000B44A5C611A60B44AB44C1A615A681440FE
:100E30008022920222435A605A68920B92035A60AF
:100E40000022AF4B48711A70AD4B1878431E984181
:100E5000C0B21BB0F0BD10200B7A0342F4D0A94AF7
:100E600008729279A74F0192A64A019DD279A54BAB
:100E7000009212022A4312B202926A46A14D1289CE
:100E80002E7AED7ABF7A2D023D4394469E4F9D4ABD
:100E90009B88527A3D804025120216439B4F36B202
:100EA000B2B24D71BB4200D1B3E137D881246400A6
:100EB000A34200D1C2E114D8822B00D191E105D820
:100EC000802B00D388E120238B71BDE78022520064
:100ED0009342F8D00222FF329342F4D1FFF77AFF17
:100EE000B2E78B48834204D00BD8A222FF32934250
:100EF000E9D10021082208A801F0A9F8082108A8D2
:100F0000CCE0C02080008342DDD0E7D84038834267
:100F1000D9D1072AD7D1AA217E48BFE07E4A934281
:100F2000DCD000D99AE07D4A934214D8013A93422A
:100F300000D3ADE07A4A9342DBD06032FF32934275
:100F4000C1D1FFF747FF8023029A5B421343654AF2
:100F5000DBB2937278E7882269481201934200D18C
:100F6000A2E180329342AED1029B30270370FFF79B
:100F700031FFA02303225B00E254C0225B4B5C499B
:100F8000586C92050840104358644620FF302554A1
:100F9000644880261864902040002754586B08400D
:100FA000104358639220400026545F4880261863FF
:100FB000B02040002554586F08405867B2204000C8
:100FC000265403263C302654FC3884469C44604614
:100FD00006680E4016430660A626FF36A5551E007D
:100FE0005248A0363060C0267600A7551F009437BF
:100FF0003E6880200E4016433E60C2267600A05513
:101000001E004B4F90363760E02644277600A755E8
:101010000436A555A055C42084469C446046066805
:101020000E4016430660D42084469C446046066801
:101030000E4016430660F02680207600A755043641
:10104000A555A0551C00E4342068F4330840104333
:101050002060186801400A431A60F5E6354A934259
:1010600000D13BE705D8344A934200D136E7334AF2
:1010700032E7334A934200D130E7324A934200D1FB
:101080000FE1314A934200D01DE708212F4805E0C7
:1010900080235B009C4504D112212D48FFF78CFE74
:1010A000D2E680239B009C4502D199212948F5E78F
:1010B000009B032B00D07CE0019B032B00D902E7AF
:1010C00008AC48220021200000F0C1FF009B6370A3
:1010D000019B002B42D1043323701F4B6380217886
:1010E0002000DBE700500041FF5000414C0A002087
:1010F000FFFFFF8F0C0A0020500B0020FF3F00F085
:10110000D8030020080A0020FA0300200203000090
:10111000A1020000F000002021090000810600006B
:10112000A1030000D80B0020940B0020A40C002089
:10113000600C002021200000210A0000210B00008B
:1011400021220000A1FE0000A1210000E8000020F3
:101150009C1A0000400000200904000004AE320088
:10116000524B23CB23C200252F001B681360AB001A
:101170004F4AF358D01919680122FFF7FFFB0135D8
:101180003F18042DF3D10025494B4A4ADD554A4BFF
:101190009B799B009E58300000F061FF01304000B9
:1011A0002070735D6A1C002B99D0510063541500A8
:1011B000F7E7009B0F2B02D1392140486EE7009BD7
:1011C000212B02D109213E4868E7009B222B00D049
:1011D00079E621213B4861E7039B08A803800221AF
:1011E0005CE7039B08A803800F231A40072A00D955
:1011F00069E60832413352011E4205D0324BD21803
:1012000093799B06DB0FE9E72F4BD2189379DB0626
:10121000F8E76346002B00D055E60F331A40531E03
:10122000062B00D94FE60832274B5201D21833065D
:1012300002D52023537151E650714FE66346002BCF
:1012400000D040E60F331A40531E062B00D93AE671
:101250005201330613D51D491B4BD31852182021B8
:10126000D079084200D139E65171127A2A4200D170
:1012700034E64022FF331A723E3A5A712EE6134981
:10128000114BD3185218D179014200D126E6507182
:10129000117A2022114200D120E6FF331A721F3A40
:1012A000EBE7002308A803800121F7E68C1A000071
:1012B000D9030020F01A0000080A002004000020D2
:1012C000DC000020B01A000000500041FF50004137
:1012D00010B5FFF717FC0022034B1A700223034AD4
:1012E00011780B43137010BDD8030020005000414B
:1012F00010B50C000122FFF759FD200010BD10B5FC
:101300000C000122FFF752FD200010BD70B5040053
:101310000D00FFF767FD03000020834204D0022286
:1013200029002000FFF7E2FC70BD70B505000C003D
:10133000FFF758FD002807D00023022221002800D3
:10134000FFF7D9FC200070BD0400FBE730B50300B7
:1013500020251C1AA24200DC30BD0C78002C03D0E2
:1013600001311C700133F4E71D70FBE7F8B58022F2
:101370000C00050092000021200000F068FE002D06
:101380000CD13E224D49200000F058FEFF2355228B
:101390005B00E2544A4B9218E254F8BD7E2D25D8EA
:1013A0006B1E3E2B00D93F3B002B12D01802454E3E
:1013B0005B02021F5B42FC30B24206D814D0551DBE
:1013C000ADB25100C91861180D8101329042F3D1BC
:1013D000E3E7F0222100FF2022700A31621C8A42DA
:1013E000E4D010700132FAE7374DEAE7822D33D8A6
:1013F0007F2DD2D131490B222B312000FFF7A6FFE0
:1014000028237E3DE37280202F01304E3B1FF3588E
:1014100020340003002B02D0180000F020FE310021
:10142000030A63770135030CA377ABB22077A37669
:10143000000E1B0A1039E077E3760B22C919200051
:10144000FFF784FF67224D23524222746374227691
:101450006376042DD7D1A0E72B00833B012B0CD85A
:101460001A4A1B01D318DD68280000F0F8FD290096
:101470000200200000F0E2FD8FE7154B853D2902B8
:10148000994200D989E7134B134A2360134B6360D9
:10149000FE235B00E2508023DB00A3618023A06871
:1014A00080229B0103432000A3600D4B5200656125
:1014B000E1602261E3612030DCE7C046001B0000F0
:1014C000FF010000FF030000FFFF0000C81B000039
:1014D000FFFF03005546320A306FB10A57515D9E37
:1014E000882BED6870B516001D000A682E4B0C00A5
:1014F0009A4251D12D4B4A689A424DD1FE22520058
:101500002B4B8A589A4247D18B689A0403D5294AB3
:10151000C969914240D1DB0711D4802322695B0065
:101520009A420CD1E068C3B2002B08D1224B234A67
:10153000C318934203D821002031FFF701F9002D91
:101540002BD0A369002B28D029681D4A8B4206D0D6
:10155000934201D8002901D001235B422B606369CB
:10156000934219D80721012219408A40DB08EB1861
:10157000197AD2B20A4204D168680A4301301A7259
:1015800068606A682B689A4206D3002E04D10D4B1E
:101590001B681E330C4A136070BD002EFCD1094B32
:1015A0001B682D33FF33F5E75546320A57515D9ED0
:1015B000306FB10A882BED6800E0FFFFFFDF03000A
:1015C00063040000000A0020040A0020F8B53A4D28
:1015D00000AFAB68002B00D0FEE7FFF789FA374B6E
:1015E0001E68374BF218F8239B029A4213D8354BEA
:1015F000354A1968354C364B914231D11978354A04
:10160000C90702D4216891422AD0334B22601B685B
:10161000324A32331360FFF7BBF8BFF35F8F62B615
:10162000FFF756FE4020FFF76BFA0A2301262C4DE8
:101630002B70FFF7D7FB2B4C00280BD02378DBB2A5
:10164000002B06D18020254AC0011360FFF758FA0D
:101650002E7026702378002B24D000F0C1FAFCE70E
:101660001B78DB07DB0F0DD00023802223601E4B8D
:1016700052035A6180239B011A6882F30888AB6089
:101680003047C8E72168194A914201D12360C2E777
:101690002168104B9942E7D0FA2022604000FFF702
:1016A00065F9E1E72378002BC3D1FF33C046013B46
:1016B000002BFBD1BDE7C04600ED00E00420000098
:1016C00000E0FFFFB42000007CB0EE87FC7F00202C
:1016D00038040040EF6926F0000A0020040A0020C8
:1016E00000000020FC03002000440041EF6916F0D8
:1016F00010B5054C12220021200000F0A8FCF023B8
:101700002370E63BE37110BD3B060020F8B50500F1
:101710000E0017000024AB68A34200D8F8BD80215A
:10172000AA7833008900E868FFF7E5FA80235B01B7
:10173000E01801223B00E968FFF7D4FE0134EAE734
:1017400070B5130006000C00150000200A000121EE
:10175000FFF75CFA0023984206D02B0022001F21DD
:101760003000FFF753FA0123180070BD10B50422B2
:101770000D210248FFF71AFB10BDC0469A01002058
:1017800010B50B480B494279037912021A43837949
:101790001B041A43C3791B0613431A0A0B714A71BF
:1017A0001A0C1B0E8A71CB71FFF7E0FF10BDC0460B
:1017B0001C0600209A01002070B504220D00FFF7DE
:1017C000F5FA164C85420FD0FFF792FF0123042251
:1017D0002373134B9A700022DA701A715A719A713E
:1017E0001A735A73FFF7CCFFFFF782FF00232373AE
:1017F000637A217A1B020B43A17A09040B43E17A35
:1018000009061943491B0B0A217263720B0C090E5E
:10181000A372E172FFF7B4FF70BDC0469A010020C9
:101820003B06002070B5184C142205000021200052
:1018300000F00DFC154A002D1FD021000823D07D9B
:1018400008313F26527C32401C2A01D0B24205D1D9
:101850000F4A0C330A800522DBB2CA70191C83427E
:1018600000D9011CC9B2002D0BD0023B9BB21B0258
:1018700023802000FFF7A0FF70BDD07C211D042332
:10188000DFE7013B2370F4E7000600201C06002080
:101890001C0A0000F0B5070000242B4B85B0597CD2
:1018A00003AAD170997C9170D97C5170197D117007
:1018B00002AA961C9A7D7270DB7D33703388A34236
:1018C00008D8FFF715FF0022204B1A73FFF758FFC7
:1018D00005B0F0BDFFF786FA0028F9D0039B1C4D38
:1018E000E3180193002F1FD029001800FFF73EFDD9
:1018F0008021042289002800FFF758FA134A013496
:10190000517A137A09021943937A1B041943D37A43
:101910001B060B430F495B18190A13725172190CFD
:101920001B0E9172D372C9E780213B00280005226B
:101930008900FFF7E0F9084B3A0029000198FFF70A
:10194000D1FDFFF7BFF8D9E71C0600209A0100205F
:101950000004002000FEFFFF50060020F0B585B017
:1019600000F03CFB454E002205213000FFF7E8FE69
:10197000002858D0737A357A1B022B43B57A404C35
:101980002D042B43F57A00272D061D432B0A637285
:101990002B0CA3722B0E2572E372F37B1E2B1BD034
:1019A00021D8122B41D013D8BB4215D0032B31D0F4
:1019B000FFF79EFE012305222373324B9A7000220B
:1019C000DA701A715A719A711A7320325A7307E0D9
:1019D0001A2B39D01B2BEBD1FFF78AFE0023237380
:1019E000FFF7CEFE1FE0282B34D00BD8232B35D0A9
:1019F000252BDDD1802324489B024360234B082103
:101A000003600EE02F2BE7D05A2B21D02A2BCFD109
:101A1000380020E0F37C191C122B00D91221194840
:101A2000C9B2FFF7C9FE05B0F0BD194C1949200035
:101A300018220830FFF78AFCF37C191C242B00D9EC
:101A40002421C9B22000ECE73800FFF7EBFEEAE7FB
:101A50000120FAE70120FFF71DFFE4E70C260E49FD
:101A6000320001A800F0EAFAB54203D92672677283
:101A7000A772E7720C2101A8D3E7C0461C0600201C
:101A80009A0100203B0600201406002000003E7F43
:101A9000A8010020E11A00004F1C000072B6BFF33D
:101AA0005F8F044B044A9A829A830022034B9A6008
:101AB0007047C04600500041FF03000000ED00E009
:101AC000F0B5C7B00FAF0400FFF7E8FF44220021D4
:101AD000380000F0BCFA9822002120A800F0B7FAE4
:101AE00002230F21BB70A37862780B40A370636858
:101AF0000A400893002307AD274E627009932B73A9
:101B0000012220ABE16825480796FFF7EBFC20AAED
:101B100039002000FFF7FAFD627801230D2128002B
:101B2000FFF7FAF80196002507AEA1783A003000D9
:101B3000FFF706FE002824D0019B03AD03937368D2
:101B40006B60B368AB6000232B73F37B002B11D069
:101B50002A2B1DD1B27D02ABDA70F27D39009A706A
:101B60005E8820AAA6602000FFF7D0FDAB68760251
:101B70009E1BAE60627801230D212800FFF7CCF890
:101B8000D1E7074B9D4201D9FEF714FF0135CBE7A2
:101B9000FEF744FFEEE7C04653425355FF0F0000E7
:101BA000F8240100B0B500AFEFF30883054C2360C3
:101BB000036883F308884568A847236883F3088887
:101BC000BD46B0BDC80D002007B501000122684622
:101BD000FEF7D4FE08216846FFF78AFB07BD000028
:101BE000F7B57A230022804C804922600B70009266
:101BF0000193FFF7B3FE7E4D40212800FFF786FBDF
:101C00007C4B1860009B2B54002801D0FEF75AFF34
:101C1000794B009A1D60794B1A607848754B0268C1
:101C20001F68BA42E5D2744D29680B78FF2B36D075
:101C3000734E232B00D0B3E06C4B1B78532B33D166
:101C400033680132013102602960BA1A9A4200D920
:101C50001A006C4D20682A6000F0F0F96748296886
:101C60000368654ACB18013B036010684B1EC3181C
:101C70001360634B644D1B682970C9B28B4203D952
:101C8000591A2068FFF751FBC046584B019A1A7049
:101C90005B4B009A1A60584A136801331360574A25
:101CA000136801331360B8E7522B04D13168206800
:101CB000FFF725FBE9E74F2B03D133682268137048
:101CC000E3E7482B03D1336822681380DDE7572B05
:101CD0000AD14E4B22689A4202D14D48FEF710FFBE
:101CE000236832681A60D0E76F2B04D10121206885
:101CF000FFF7FEFAC9E7682B05D1022123681B888C
:101D000033603000F4E7772B04D1236804211B688B
:101D10003360F6E7472B09D13068FFF743FF3D4BAF
:101D20001B78002BB1D001213B48E1E7542BACD00C
:101D30004E2BAAD0562B02D12A213848D8E7582B4F
:101D400005D13068FEF7BAFC03213548D0E7592B9E
:101D50000DD132682068334B002A03D1186003216B
:101D60003148C5E792081968FEF7C0FCF7E75A2B1F
:101D70008BD1376800262568EF19AF4209D10121C0
:101D80002A48FFF7B5FA3000FFF71EFF0321284865
:101D9000AEE728783100FEF7BFFD01350600ECE71D
:101DA0001A00303AD1B2092904D833681B01134311
:101DB000336070E71A00413A052A03D83268373B8E
:101DC0001201F4E71A00613A052A03D83268573B3A
:101DD0001201ECE72C2B03D133682360009BE7E76B
:101DE000024A1370FAE7C046C40D0020780D0020A7
:101DF000800D0020700D0020740D00207C0D00204F
:101E0000CC0D0020D00D00206C0D00200CED00E06A
:101E100040004000E8060020851C00005B1C00001C
:101E2000871C0000EC0600208B1C00008F1C0000AB
:101E3000911C0000F8B50300473304001A784021D4
:101E400003000020FEF7E2FE002801D10020F8BDCB
:101E50000023257923706BB2002BF7DB3F2720008E
:101E6000A61DF38F2F404830C018611D3A0000F0C6
:101E7000E5F83F23F08F9D43C01980B2002D01D1BA
:101E8000F087E3E70023F387E1E7F0B506000C00F5
:101E90001F0093B001923F25AC4203DC2500002FC8
:101EA00000D140373B0002AA2B43137002AB310034
:101EB0002A00581C00F0C2F86B4640211A7902A88B
:101EC0000123FEF729FF7619641BE4D113B0F0BD9E
:101ED000030010B547331A78043148300023FFF768
:101EE000D4FF10BDF7B50400FFF7A4FF002841D0D0
:101EF000230048339A88A06C1A80002201385A8047
:101F0000082861D800F090F815052327252A473EB8
:101F100037002F4E300000F0A2F8050020003100FD
:101F20004C302A0000F08AF829002000FFF7D0FF8B
:101F300020E00123E364FF3323658023DB00636536
:101F4000A0235B00A365234B1421E365EDE7FEF7B7
:101F500031FD0021E9E7FEF761FDFAE720000021ED
:101F6000FFF7B6FF206D1C4B984203D92100543176
:101F7000FEF7E6FBF7BD2100626D5831206DFEF7DC
:101F8000ABFBE6E72000656D216D4C302A00FEF7C3
:101F9000A3FBA900C9E70026276D656DB54201DCEA
:101FA0006900C2E700213B000137FF375A1C18784F
:101FB0000192FEF7B1FC019B0100BB42F6D1730018
:101FC0004C33E0520136E9E701225A80C1E7C046AE
:101FD000F81B0000882BED68FF1F00000748062251
:101FE000030010B547331A70FFF77CFF044807223F
:101FF000030047331A70FFF775FF10BDF00600208D
:102000007808002010B5E2B00400FFF747FDC422B5
:1020100000215200684600F01AF847236B441C70F8
:102020006846FFF75FFFFBE702B4714649084900C5
:10203000095C49008E4402BC7047C046002310B5BD
:102040009A4200D110BDCC5CC4540133F8E70300C0
:102050001218934200D1704719700133F9E7002339
:10206000C25C0133002AFBD1581E70470CA08000CF
:1020700040A0800044A0800048A08000120110020F
:10208000EF020140EB0302240142010203010000C0
:102090000697FF0901A101150026FF00750895406C
:1020A0000901810295400901910295010901B102DE
:1020B000C058696E61426F78204C696D69746564BF
:1020C0000058696E61426F7820435730330000003A
:1020D00000000000D11A0000E11A0000D90300201E
:1020E000EB3C90554632205546322000020101005B
:1020F0000240007E3EF83F000100010000000000A9
:1021000000000000800029420042004357303300A5
:1021100000000000000046415431362020203C21C0
:10212000646F63747970652068746D6C3E0A3C68F6
:10213000746D6C3E3C626F64793E3C73637269708F
:10214000743E0A6C6F636174696F6E2E7265706C99
:10215000616365282268747470733A2F2F78696EF2
:1021600061626F782E63632F636F6C6C6563746953
:102170006F6E732F73656E736F72732F70726F64EF
:10218000756374732F6377303322293B0A3C2F73B6
:1021900063726970743E3C2F626F64793E3C2F68B5
:1021A000746D6C3E0A000000494E464F5F55463242
:1021B00054585400F81B0000494E44455820202034
:1021C00048544D003E1B000043555252454E54208A
:1021D000554632000000000055463220426F6F74B1
:1021E0006C6F616465722076332E342E302D353855
:1021F0002D67323430656465302053464857524F5E
:102200000D0A4D6F64656C3A2058696E61426F78B3
:1022100020435730330D0A426F6172642D49443AAE
:1022200020435730332D56312E312E350D0A000004
:1022300000000800003E800200020076312E3120AE
:102240005B41726475696E6F3A58595A5D204465F6
:102250006320313320323031392030313A30343A52
:1022600035370A0D000600580A0D00590A0D005AAC
:1022700000230A0D0000000001C80000050F39000E
:10228000021810050038B60834A909A0478BFDA034
:10229000768815B665000101001C100500DF60DDC1
:1022A000D88945C74C9CD2659D9E648A9F000003D7
:1022B00006AA000200000000090299000501008042
:1022C000FA080B00020202010009040000010202E8
:1022D0000100052400100104240206052406000163
:1022E0000524010301070583030800FF0904010019
:1022F000020A0000000705810240000007050202F3
:10230000400000090402000208065000070584028C
:102310004000000705050240000009040300020315
:1023200000000009210001000122210007058603A9
:10233000400001070506034000010904040002FFF4
:102340002A01000705870340000107050703400035
:102350000100000009040300020300000300000064
:1023600000C20100000008000A000000000003068F
:10237000AA00080002000400A0001400030057494E
:102380004E55534200000000000000000000840091
:10239000040007002A00440065007600690063001D
:1023A000650049006E0074006500720066006100FF
:1023B00063006500470055004900440073000000B9
:1023C00050007B00390032004300450036003400E5
:1023D000360032002D0039004300370037002D0051
:1023E00034003600460045002D003900330033002C
:1023F00042002D0033003100430042003900430009
:102400003500420042003300420039007D000000E8
:10241000000053425355000000000000000000007F
:102420000080020220000000000000000000000008
:10243000000000000000000000000000000000009C
:10244000312E3030000000000000000000000000CD
:10245000000000000000000000000000000000007C
:10246000000000000000000000000000000000006C
:10247000000000000000000000000000000000005C
:10248000000000000000000000000000000000004C
:10249000000000000000000000000000000000003C
:1024A000000000000000000000000000000000002C
:1024B000000000000000000000000000000000001C
:1024C000000000000000000000000000000000000C
:1024D00000000000000000000000000000000000FC
:1024E00000000000000000000000000000000000EC
:1024F00000000000000000000000000000000000DC
:1025000000000000000000000000000000000000CB
:1025100000000000000000000000000000000000BB
:1025200000000000000000000000000000000000AB
:10253000000000000000000000000000000000009B
:10254000000000000000000000000000000000008B
:10255000000000000000000000000000000000007B
:10256000000000000000000000000000000000006B
:10257000000000000000000000000000000000005B
:10258000000000000000000000000000000000004B
:10259000000000000000000000000000000000003B
:1025A000000000000000000000000000000000002B
:1025B000000000000000000000000000000000001B
:1025C000000000000000000000000000000000000B
:1025D00000000000251A0000E1140000F81B0000B4
:1025E00079B5A70B8D23052919F04CD553C193D389
:0425F00001C800001E
:00000001FF
